S00C00006D61696E2E7372656373
S113000000E4FF1F810600007D0600007D0600005D
S113001000000000000000000000000000000000DC
S11300200000000000000000000000007D06000049
S113003000000000000000007D0600007D060000B6
S11300408106000081060000810600008106000090
S11300500000000081060000810600008106000007
S11300608106000081060000810600008106000070
S11300708106000081060000810600008106000060
S11300808106000081060000810600008106000050
S113009081060000810600008106000000000000C7
S11300A08106000081060000810600008106000030
S11300B081060000000000008106000081060000A7
S1130400FFFFFFFFFFFFFFFFFFFFFFFFFEFFFFFFF9
S1130410002382B001930199054B1A1C994205DC13
S1130420019B01330193019B9342F9DD02B07047B4
S11304303F420F00882200218020094B520199502D
S1130440084940015A5802435A5080222021064B41
S113045052005A61054B5A690A435A615960704700
S1130460007004403810000000C00440C0F00F4089
S11304702022014BDA607047C0F00F40882200212F
S113048080200A4B52019950094980015A5802436D
S11304905A5080228021074B52005A67064B890527
S11304A05A690A435A6159607047C0460070044053
S11304B03810000000D0044000F10F408022024BAD
S11304C09205DA607047C04600F10F4001238B406B
S11304D00269191C131C10B50B40041C82B00020C7
S11304E0002B0FD101930198074B1A1C984205DC8D
S11304F0019B01330193019B9342F9DD2069014083
S11305004842484102B010BD3F420F0001281BD0B1
S1130510012919D02022194B0021DA608822802079
S1130520174B52019950174980015A5802435A50A7
S113053080228021144B52005A67144B89055A6952
S11305400A435A61596070478022104B9205DA6061
S11305508822002180200A4B520199500949400108
S11305605A5802435A5080222021094B52005A61A2
S1130570024B5A690A435A615960E4E7C0F00F40DC
S1130580007004403810000000D0044000F10F4017
S113059000C00440F0B588250026802080248027F0
S11305A02E4B2F4A6D015E51995880010143995099
S11305B02C4964004C672C49BF05486985B0384311
S11305C0486180204F605E51995840010143995021
S11305D020210025254B08365C61254B254C5A69A2
S11305E00A435A6159602369002033400FD10193B3
S11305F00199214B1A1C994205DC019B013301939B
S1130600019B9342F9DD01202369DB089843802391
S113061022695B0113400021002B0FD10293029940
S1130620154B1A1C994205DC029B01330293029B71
S11306309342F9DD012123691B0B9943FFF766FF00
S113064003950D4B03991A1C9942CCDC039B01338F
S11306500393039B9342F9DDC5E7C0460070044051
S11306603810000000D0044000F10F4000C00440E6
S1130670C0F00F4080F00F403F420F00FEE7C0463D
S11306801149124B10B599420BD2CA43D218002318
S1130690920801320E489200C458CC50043393425D
S11306A0FAD10C480C4B98420BD2C1430024C91810
S11306B00023890801318900C218043314608B4275
S11306C0FAD1FFF767FF10BD00E0FF1F00E0FF1F36
S10F06D0DC06000000E0FF1F00E0FF1F3C
S9030410E8
